:020000040800F2
:100000008053002061140008810300088303000866
:10001000870300088B0300088F030008000000001E
:100020000000000000000000000000009303000832
:1000300095030008000000009703000899030008DA
:100040007B1400087B1400087B1400087B14000854
:100050007B1400087B140008530300087B1400087D
:100060007B140008B90200087B1400087B14000808
:100070007B1400087B1400087B1400087B14000824
:100080007B1400087B1400087B1400087B14000814
:100090007B1400087B1400087B1400087B14000804
:1000A0007B1400087B1400087B1400087B140008F4
:1000B0007B1400080F0300087B1400087B14000861
:1000C0007B1400087B1400087B1400087B140008D4
:1000D0007B140008D51300087B1400087B1400086B
:1000E0007B1400087B1400087B1400087B140008B4
:1000F0007B1400087B1400087B1400087B140008A4
:100100007B1400087B1400087B1400087B14000893
:100110007B1400087B1400087B1400087B14000883
:100120007B1400087B1400087B1400087B14000873
:100130007B1400087B1400087B1400087B14000863
:100140007B1400087B1400087B1400087B14000853
:100150007B1400087B1400087B1400087B14000843
:100160007B1400087B1400087B1400087B14000833
:100170007B1400087B1400087B1400087B14000823
:100180007B1400087B14000800F002F800F03AF835
:100190000AA090E8000C82448344AAF10107DA45E2
:1001A00001D100F02FF8AFF2090EBAE80F0013F0FA
:1001B000010F18BFFB1A43F001031847B83C0000B9
:1001C000D83C0000103A24BF78C878C1FAD852074A
:1001D00024BF30C830C144BF04680C6070470000C1
:1001E0000023002400250026103A28BF78C1FBD840
:1001F000520728BF30C148BF0B6070471FB51FBDF5
:1002000010B510BD02F087FF1146FFF7F7FF00F0B1
:1002100009F802F0A5FF03B4FFF7F2FF03BC01F0F9
:100220007AF800004FF4A06001F03AF9A82000F03D
:10023000E1FF4FF4E13001F07BF800F0BDF940F24E
:10024000DC52532144F61F6000F068FA40F6B832E1
:10025000292142F20F7000F06DFA42F2CF0142F212
:100260000F7000F0C7FD00F08BFC00F01AFB0121BD
:100270000F4801F089FA00BF00F060FB0128FBD1B4
:1002800001210B4801F07EFA00F050FB00200949E3
:10029000087000F05BFA0AE006480078022806D1F0
:1002A00000F06FFB00F0E2FE002002490870F3E767
:1002B00000040240B300002010B5082002F012FF35
:1002C00020B33648007898B91021354801F05CFA1F
:1002D0000421334801F056FA012030490870042106
:1002E0002F4801F04FFA10212D4801F04BFA0AE097
:1002F0002A480078012806D10421294801F044FA4F
:10030000022026490870082002F0F7FE10BD10B543
:100310000121244802F00DFA012815D12248007865
:10032000401C2149087008460078082806D10120A1
:100330001E49087040F6B8301D4908601D48006825
:1003400080F001001B4908600121164802F002FA02
:1003500010BD10B50A2000F0AFFF012002F0C2FE70
:1003600068B11448006880F001001249086008076D
:10037000406BC83009074863012002F0BEFE10BD83
:10038000704700BFFEE700BFFEE700BFFEE700BF0B
:10039000FEE770477047704770470000B3000020C9
:1003A000000802400004004000000020C2000020BD
:1003B00034080040140402400CB500200190009065
:1003C0007248006840F480307049086000BF6F4890
:1003D000006800F4003000900198401C01900098E3
:1003E00018B90198B0F5A04FF1D16848006800F441
:1003F000003010B10120009001E000200090009832
:10040000012846D161484030006840F080505F4983
:10041000403108605E48006840F440405C49086034
:100420005A48083000685949083108600846006891
:1004300040F4004008600846006840F4A05008609E
:100440005448091F0860081F006840F08070091FA9
:10045000086000BF4D48006800F000700028F9D027
:1004600040F205704C49086048480830006820F0A8
:1004700003004649083108600846006840F0020061
:10048000086000BF41480830006800F00C000828F0
:10049000F8D10CBD10B53D48006840F001003B4963
:1004A00008600020394908310860384800683B4935
:1004B0000840364908603A48091D0860081F00686E
:1004C00020F48020091F0860002030490C310860AA
:1004D000FFF772FF4FF000603249086010BD70B541
:1004E00000200022022300240221284D08352D6817
:1004F00005F00C0020B1042806D0082834D107E00C
:10050000294D2A4E356033E0294D284E35602FE0C5
:100510001E4D2D1D2D68C5F380541C4D2D1D2D68BD
:1005200005F03F0154B1224DB5FBF1F5174E361DD4
:100530003668C6F3881605FB06F209E01A4DB5FBCE
:10054000F1F5124E361D3668C6F3881605FB06F225
:100550000E4D2D1D2D68C5F301456D1C6B00B2FBC2
:10056000F3F5124E356003E00F4D104E356000BFBD
:1005700000BF064D08352D68C5F303150D4E705D9F
:100580000A4D2D68C540094E356070BD00380240E7
:100590000070004008544007003C0240FFFFF6FE98
:1005A0001030002408ED00E00024F40004000020D6
:1005B00000127A00080000201CB50121022002F080
:1005C000C9FB012000908DF8040000208DF8060082
:1005D00003208DF8050001208DF8070069460448C6
:1005E00001F054F80121024801F0CCF81CBD0000D4
:1005F000000402401CB50121084602F0ABFB0122B9
:100600000521764801F0CDF82020009002208DF8D9
:10061000040000208DF806008DF8070003208DF8F7
:10062000050069466D4801F031F81CBD1CB501217B
:10063000022002F08FFB02220621694801F0B1F886
:100640004020009002208DF8040000208DF8060064
:100650008DF8070003208DF805006946604801F019
:1006600015F81CBD70B588B006460C46154601212C
:10067000084602F0B8FB0696ADF814400020ADF82D
:100680001C00ADF8160005A94FF0804001F099FB61
:100690006020ADF800000120ADF8020002950020B6
:1006A000ADF80C0069464FF0804001F01FFC0821B6
:1006B000C80601F0A8FD0121880701F00BFC08B075
:1006C00070BD70B588B006460C4615460121042061
:1006D00002F089FB0696ADF814400020ADF81C002E
:1006E000ADF8160005A93F4801F06BFB6020ADF89E
:1006F00000000120ADF8020002950020ADF80C00CA
:100700006946384801F0F2FB0821364801F07BFDCC
:100710000121344801F0DEFB08B070BD70B504461D
:100720000D461646FFF766FF324629462046FFF77C
:1007300099FF70BD70B504460D461646FFF776FF6B
:10074000324629462046FFF7BCFF70BD10B5642035
:1007500000F0B2FD23483430006864302149343160
:100760000860642000F0A8FD1E4834300068643042
:100770001C4934310860642000F09EFD1948343073
:1007800000689630174934310860642000F094FD09
:1007900014483430006896301249343108606420BF
:1007A00000F08AFD0F483430006896300D4934312E
:1007B0000860642000F080FD0A48343000689630FC
:1007C000084934310860642000F076FD0548343073
:1007D0000068963003493431086010BD00000240C3
:1007E00000040240000800401CB501208DF8040000
:1007F00000208DF8060003208DF8050001208DF8FB
:1008000007006946D64800F041FF0121042002F0AC
:10081000A1FA042000906946D24800F037FF012178
:10082000042002F097FA102000906946CD4800F0AD
:100830002DFF0121084602F08DFA04200090694640
:10084000C94800F023FF0121084602F083FA08207E
:1008500000906946C44800F019FF0121042002F00D
:1008600079FA202000906946BE4800F00FFF012170
:10087000082002F06FFA4FF47F40009000208DF8BE
:10088000040003208DF805006946B84800F0FEFE1C
:100890000821B54800F078FF0421B24800F072FF4B
:1008A0001CBD10B5FFF7A0FF10BD1CB501218803CA
:1008B00002F0AAFA0121042002F04CFA082000906C
:1008C00000208DF8040002208DF805008DF8070047
:1008D0006946A44800F0DAFE1CBD08B54FF4A060DC
:1008E00000F0DEFD09208DF8000000208DF80100E9
:1008F00003208DF8020001208DF80300684600F007
:10090000D4FD08BD1CB50321022002F010F8082018
:10091000009000208DF804000C208DF805000120C7
:100920008DF80600684602F077FB1CBD10B5FFF796
:10093000BCFFFFF7E7FFFFF7D0FF10BD70B5002445
:1009400000258021122000F009FA0B2000F025FA82
:100950000546212D11D100BF0AE0854A02EB440271
:100960005178834A12F8140000F0F8F9601C84B240
:10097000804800788442F0DB01E0002070BD012057
:10098000FCE770B500BF0421774800F0FDFE202190
:10099000744800F0F9FE2021724800F0F3FE0421B3
:1009A000714800F0EFFE20216E4800F0EDFE20219E
:1009B0006C4800F0E7FE00BF0025A3E0284605EBE9
:1009C000D0714910A5EB4101C9B1002413E000BF6B
:1009D0002021644800F0D8FE2021624800F0D2FEB9
:1009E0002021604800F0D0FE20215E4800F0CAFEC1
:1009F00000BF601C84B2B4F5A07FE8DB80E0002477
:100A00007BE0204604EBD0714910A4EB410189B191
:100A100000BF2021534800F0B7FE2021514800F0CC
:100A2000B1FE20214F4800F0AFFE20214D4800F0DC
:100A3000A9FE60E000BF0022294605EBD1735B10E0
:100A400003EB83034C4E06EB4313204604EBD076B6
:100A500076109A552021434800F096FE434A103202
:100A60001268C2F30722294605EBD1735B1003EB32
:100A70008303414E06EB4313204604EBD0767610F9
:100A80009A552021374800F07DFE2021354800F09E
:100A90007BFE2021334800F075FE00BF05EBD572C8
:100AA000521002EB8202344B03EB421204EBD4737C
:100AB0005B10D25CA52A0FDDFE22294605EBD1731F
:100AC0005B1003EB83032C4E06EB4313204604EB31
:100AD000D07676109A550EE00022294605EBD173A8
:100AE0005B1003EB8303244E06EB4313204604EB19
:100AF000D07676109A55601C84B2B4F5A07F80DB66
:100B0000681C85B2F02DFFF659AF70BD70B5FF219E
:100B10001A4800F0F1FB00241FE0002519E004EB67
:100B20008400154901EB4010405DFF2806D1FE20EE
:100B300004EB8401104A02EB4111485504EB840098
:100B40000D4A02EB4010415D0C4800F0D5FB681CDB
:100B500085B2A02DE3DB601C84B2782CDDDB70BD98
:100B6000001802400008024000000240000C024051
:100B700018000020B2000020E0000020001001401A
:100B80001CB50121082002F0E5F8C02000900120EA
:100B90008DF8040000208DF8060002208DF8050075
:100BA00001208DF8070069468F4800F06FFDC021D5
:100BB0008D4800F0E7FD8C48006820F440408A49E9
:100BC00008600846006840F4804008601CBD10B50D
:100BD0000120864908608649C1F89802322000F059
:100BE00023FB002081490860322000F01DFB00201B
:100BF0007F49C1F8980210BD10B500207B490860FC
:100C0000322000F011FB01207949C1F8980232200E
:100C100000F00AFB012075490860322000F004FB57
:100C200010BD10B5322000F0FFFA01206F490860B6
:100C30006F49C1F89802322000F0F6FA00206B49A3
:100C4000091F0860322000F0EFFA00206849C1F85F
:100C50009C02322000F0E8FA10BD70B50446002670
:100C60001BE004F0800018B101206049086002E038
:100C700000205E4908606006040E322000F0D4FABD
:100C800001205A49091F0860322000F0CDFA0020E7
:100C90005749C1F89802701CC6B2082EE1DB5248D1
:100CA000006820F440405049086008460068086029
:100CB000322000F0B9FA01204C49091F08603220A7
:100CC00000F0B2FA4A48D0F81C0208B1012500E051
:100CD000002500204549091F08604348006820F4AA
:100CE0004040414908600846006840F48040086080
:100CF000284670BD70B500243B48006820F4404091
:100D000039490860084600680860082517E0322065
:100D100000F08AFA01203549091F08606006040EB8
:100D20003348D0F81C0208B1601CC4B2322000F075
:100D30007BFA00202D49091F0860681EC5B2002DEE
:100D4000E5DC2948006820F440402749086008464F
:100D5000006840F480400860204670BD70B50546CC
:100D60000C460026FFF733FF4220FFF776FF00B165
:100D70000126642000F058FA2846FFF76EFF00B104
:100D80000126642000F050FA2046FFF766FF00B10C
:100D90000126FFF731FF304670BD70B504460025CF
:100DA000FFF715FF4220FFF758FF642000F03CFAE0
:100DB0002046FFF752FF642000F036FAFFF71CFFD1
:100DC000642000F031FAFFF702FF4320FFF745FFF0
:100DD000642000F029FAFFF78DFF0546FFF721FF99
:100DE000FFF70AFF284670BD000C02409C8241427A
:100DF000008041427FB505460C460121022001F0EA
:100E0000F2FF0295ADF804400020ADF80600ADF801
:100E10000C0001A90D4800F0D4FF012211460B4837
:100E200001F070FC0121094801F054F81D208DF8F3
:100E3000000001208DF8010003208DF80200012040
:100E40008DF80300684600F030FB7FBD00040040D1
:100E5000F0B577217FE0002023E001EB8106894F88
:100E600007EB4616365CFE2E13D101EB810607EB2D
:100E70004617461CBE5DFE2E0BD101EB8106814F4D
:100E800007EB4617861CBE5DFE2E02D1C4B2224679
:100E900009E014467C4E3678761C7B4F3E70461C2B
:100EA000B0B29E28D9DB00BF9F2023E001EB810672
:100EB000744F07EB4616365CFE2E13D101EB81060C
:100EC00007EB4617461EBE5DFE2E0BD101EB8106D9
:100ED0006C4F07EB4617861EBE5DFE2E02D1C5B2D3
:100EE0002B4609E01D46694E3678761C674F3E70EA
:100EF000461EB0B20228D9DC00BF3C2920DD4129C2
:100F00001EDA00200EE001EB81065E4F07EB46166D
:100F1000365CFE2E04D15E4E3678761C5C4F3E70F9
:100F2000461CB0B2A028EEDB594E3678782E07DD8D
:100F30000026574F3E70574E3678761C554F3E7000
:100F4000661906EBD677C7F34707DFF84CC10CF8F4
:100F500001704E1EB1B200293FF77DAFF0BD2DE903
:100F6000F0470025002605240DE04B49095DA1F15D
:100F7000520002F0BFFD80464146304602F06AFC56
:100F80000646601CC4B21E2CEFDB4449304602F01A
:100F9000CFFC06464249304602F0C4FD02D2012091
:100FA0004049087000261E240DE03B49095DA1F16F
:100FB000520002F09FFD07463946284602F04AFCDF
:100FC0000546601CC4B2462CEFDB3749284602F0C8
:100FD000AFFC814600254846BDE8F08770B5002487
:100FE00019E02D48055D002104EB8400254A02EB41
:100FF0004012681E1154002004EB8401214A02EBC8
:1010000041114855002104EB840002EB4012681C9A
:101010001154601C84B2782CE3DBFF21234800F0DC
:101020006BF900241FE0002519E004EB840015494A
:1010300001EB4010405DFF2806D1FE2004EB840147
:10104000104A02EB4111485504EB84000D4A02EBB3
:101050004010415D154800F04FF9681C85B2A02D85
:10106000E3DB601C84B2782CDDDB70BD10B5FFF7CC
:10107000EFFEFFF774FF0E49086000F082F800F001
:1010800019F810BDE0000020BC000020BD000020C9
:10109000C1000020C0000020E04B00200000C8413B
:1010A0000000F0C1BF0000200000204200100140FD
:1010B000B40000202DE9FC473F48006802F09EFB89
:1010C000044600223D4B02F03FF90BD23A4800683B
:1010D00002F094FB04460022394B02F06FFA01D271
:1010E000BDE8FC87374801683348006802F04CFED1
:1010F0000746354902F04AFD064602F07FFB0446EA
:101100000D462D48006802F079FB06464FF0333259
:101110002E4B02F055F922462B46CDE9000102F094
:101120005FF8804602F02AF8824623480068254985
:1011300008605146264802F027FE0446254902F081
:1011400089FB82462449504602F0ECFD01D2DFF8CB
:1011500088A02249504602F0E5FC01D2DFF87CA0CD
:101160001F480078012804D1DFF878A002201C492C
:101170000870504602F09EFC4FF08041486300BF6B
:10118000AEE710B518480078022804DD4FF42F6050
:10119000164908600EE016490748006802F0C2FCD4
:1011A00004D240F654301149086003E040F6D8609C
:1011B0000E49086010BD0000B40000200000F83F98
:1011C0000000F8BFB80000200000A0403333FB3F10
:1011D0000080BB440000704100C0DA4400409C44E1
:1011E000BF0000200040CE44C00000203408004072
:1011F000000020C110B504466FF0040000F0A2F911
:10120000E11704EB5171C1F3C701394A117010465F
:10121000007800EB4001C1EBC0104FF6FF7101EA0E
:10122000C0003449088010BD0146314A12784A4353
:101230004FF0E0235A6100229A611A46126942F087
:1012400001021A6100BF4FF0E022106900F00102B4
:101250001AB100F48032002AF5D04FF0E022126972
:1012600022F001024FF0E0231A6100229A617047D8
:101270000146204A12884A434FF0E0235A61002277
:101280009A611A46126942F001021A6100BF4FF0DA
:10129000E022106900F001021AB100F48032002A45
:1012A000F5D04FF0E022126922F001024FF0E02366
:1012B0001A6100229A61704770B504464FF40770B6
:1012C00094FBF0F0C6B24FF4077094FBF0F100FB12
:1012D000114085B205E04FF40770FFF7C9FF701E9B
:1012E000C6B2002EF7D115B12846FFF7C1FF70BD79
:1012F000C4000020C600002070B504460D462946F3
:10130000204600F0A1FB00BF8021204600F04CFCED
:101310000028F9D070BD00BF704700BF4C4A12884A
:1013200002F04002002AF9D0C2B2494B9A807047BD
:1013300010B588B004460121084601F00BFD0121DB
:10134000102001F061FD07220921424800F029FA2E
:1013500007220A213F4800F024FA4FF4C0600690AB
:1013600002208DF81C008DF81D0000208DF81E0055
:1013700001208DF81F0006A9364800F087F9029475
:101380000020ADF80C00ADF80E00ADF81000ADF87F
:1013900014000C20ADF8120002A92D4800F0A1FAAB
:1013A00001212B4800F025FB012240F2255128485D
:1013B00000F0D5FB25208DF8040003208DF80500F2
:1013C0008DF8060001208DF8070001A800F06DF8E7
:1013D00008B010BD10B540F225511D4800F0FAFBD1
:1013E00010B31B4800F034FBC4B21B48008800F463
:1013F0000040C8B91848008800F4804060B10A2C49
:1014000003D000201449088020E01348008840F4ED
:1014100000401149088019E00D2C06D10E480088C3
:1014200040F480400C49088010E00B480088C0F36D
:101430000D000A490C5408480088401C06490880E1
:1014400008460088C72801DD0020088010BD000084
:101450000010014000000240CC000020584C002049
:101460000948804709480047FEE7FEE7FEE7FEE738
:10147000FEE7FEE7FEE7FEE7FEE7FEE70448054974
:10148000054A064B704700009504000889010008D2
:10149000804D002080530020804F0020804F00208E
:1014A00032490143324A1160704770B50021002370
:1014B0000F22C4781CB32E4C246804F4E064C4F5F5
:1014C000E064C4F30721C1F10404E3B20A414478A3
:1014D0009C40E1B28478144021430C07210E254C36
:1014E00005786155047804F01F050124AC400578A7
:1014F0006D11AD0005F1E025C5F8004109E0047863
:1015000004F01F050124AC401B4D0678761145F808
:10151000264070BD194A0A400243154B1B1F1A6032
:10152000704739B1124A121D12680243104B1B1D3D
:101530001A6006E00E4A121D126882430C4B1B1DF6
:101540001A607047042808D14FF0E021096941F082
:1015500004014FF0E022116107E04FF0E02109693A
:1015600021F004014FF0E022116170470000FA05FC
:101570000CED00E000E400E080E100E080FFFF1FF0
:1015800010B504469848844208D10121084601F06C
:101590004CFC0021012001F048FC76E09348844295
:1015A00008D10121022001F040FC0021022001F0BD
:1015B0003CFC6AE08E48844208D10121042001F0FD
:1015C00034FC0021042001F030FC5EE089488442B4
:1015D00008D10121082001F028FC0021082001F099
:1015E00024FC52E08448844208D10121102001F0FB
:1015F0001CFC0021102001F018FC46E07F488442CA
:1016000008D10121202001F010FC0021202001F050
:101610000CFC3AE07A48844208D10121402001F0D4
:1016200004FC0021402001F000FC2EE075488442BB
:1016300008D10121802001F0F8FB0021802001F079
:10164000F4FB22E07048844208D10121801501F0AA
:10165000ECFB0021A01501F0E8FB16E06B4884428A
:1016600008D10121401501F0E0FB0021601501F0D7
:10167000DCFB0AE06648844207D10121001501F035
:10168000D4FB0021201501F0D0FB10BDF0B50A46B7
:1016900000210023002400BF3DE0012505FA01F3ED
:1016A000156805EA03049C4234D105684F000326FF
:1016B000BE40B543056015794E00B5400668354318
:1016C00005601579012D02D01579022D16D1856896
:1016D0004F000326BE40B543856055794E00B540A6
:1016E000866835438560456801268E40B543456070
:1016F000456896798E40B6B235434560C5684F005F
:101700000326BE40B543C560D5794E00B540C668D6
:101710003543C560491C1029BFD3F0BD4FF6FF719A
:1017200001600021017141718171C171704708B57B
:101730004FF480320092009A0A430092009AC261EC
:10174000C161009AC261C2690092C269009208BD7B
:101750000246002013690B400BB1012000E000207D
:1017600070470146086980B27047024600205369FD
:101770000B400BB1012000E0002070470146486992
:1017800080B2704701837047418370470AB101837B
:1017900000E0418370474161704742694A404261BD
:1017A0007047F0B5002300244D07ED0E02FA05F353
:1017B000CE1000F1200555F826504E07F70E0F26E3
:1017C000BE40B543CF1000F1200646F82750CE109A
:1017D00000F1200555F8265045EA0304CE1000F12B
:1017E000200545F82640F0BD0000024000040240FC
:1017F00000080240000C02400010024000140240A9
:1018000000180240001C0240002002400024024058
:101810000028024010B50446FA48844208D101214C
:10182000102001F046FB0021102001F042FB57E0A0
:10183000F548844209D10121480401F029FB002127
:101840004FF4003001F024FB4AE0F048844209D113
:101850000121880401F01CFB00214FF4802001F0DD
:1018600017FB3DE0EA48844209D10121C80401F098
:101870000FFB00214FF4002001F00AFB30E0E548A7
:10188000844209D10121080501F002FB00214FF437
:10189000801001F0FDFA23E0DF48844208D10121E5
:1018A000202001F006FB0021202001F002FB17E0C0
:1018B000DA48844209D10121880701F0E9FA0021C0
:1018C0004FF0804001F0E4FA0AE0D548844207D1A5
:1018D0000121400501F0DCFA0021600501F0D8FA91
:1018E00010BD2DE9FF4705460E460024A14600BF66
:1018F000A046B08900B100BF2C8A24F44054F0887F
:1019000004432C82AC8941F20C608443B088318955
:101910000843718908430443AC81AC8A24F44074C1
:10192000B0890443AC82684601F043F9B54885426A
:1019300002D0B948854202D1DDF80C9001E0DDF813
:101940000890A88900F4004040B109EBC90000EB01
:10195000091031684900B0FBF1F707E009EBC90055
:1019600000EB091031688900B0FBF1F76420B7FB88
:10197000F0F004012009642101FB1078A88900F42B
:10198000004040B1322000EBC800B0FBF1F000F0A5
:101990000700044308E0322000EB08106421B0FB8C
:1019A000F1F000F00F0004432C81BDE8FF874FF4F5
:1019B0001651016000218180C18001810C2141818B
:1019C00000218181704710B502460020108A20F462
:1019D00070600B884C8823438C882343CC88234336
:1019E0001843108210BD0021018041808180C18098
:1019F000704721B1828942F40052828104E08289D9
:101A00004DF6FF731A4082817047028B02F47F42C9
:101A10000283028B0A430283704721B1828942F418
:101A20000042828103E08289C2F30E028281704704
:101A300021B1828A42F40062828204E0828A4FF2FB
:101A4000FF731A4082827047C1F308028280704798
:101A500001468888C0F308007047028A4FF6F07389
:101A60001A400282028A0A430282704721B18289A7
:101A700042F00202828104E082894FF6FD731A402F
:101A80008281704782894FF2FF731A408281828976
:101A90000A4382817047028A4FF6DF731A4002823E
:101AA000028A0A430282704721B1028A42F48042CC
:101AB000028204E0028A4BF6FF731A4002827047EA
:101AC000818941F001018181704721B1828A42F010
:101AD0000802828204E0828A4FF6F7731A408282FB
:101AE0007047028BD2B20283028B42EA0122028348
:101AF000704721B1828A42F02002828204E0828A09
:101B00004FF6DF731A408282704721B1828A42F019
:101B10001002828204E0828A4FF6EF731A408282BA
:101B20007047828A4FF6FB731A408282828A0A4388
:101B30008282704721B1828A42F00202828204E0EE
:101B4000828A4FF6FD731A40828270471AB1838AE7
:101B50000B43838202E0838A8B4383827047F0B514
:101B60000346002400260025002040F66A17B942EB
:101B700000D100BF1846C1F3421401F01F0601272F
:101B800007FA06F5012C01D10C3004E0022C01D13A
:101B9000103000E014301AB107682F43076002E0EC
:101BA0000768AF430760F0BD02460020B1F5007F33
:101BB00000D100BF13880B400BB1012000E00020D2
:101BC000704701F40072B2F5007F00D100BFCA4334
:101BD0000280704770B502460024002300250020D3
:101BE00040F66A16B14200D100BFC1F3421501F0C0
:101BF0001F03012606FA03F3012D13D19689334002
:101C000017E0000000100140004400400048004080
:101C1000004C00400050004000140140007800409B
:101C2000007C0040022D02D1168A334001E0968AE2
:101C300033400C12012606FA04F41688344013B11E
:101C40000CB1012000E0002070BD10B5002200237F
:101C500040F66A14A14200D100BF0A120124944048
:101C6000A3B2DC43048010BD10B50446FE48844294
:101C700008D10121084601F01CF90021012001F0E2
:101C800018F99DE0B4F1804F08D10121084601F018
:101C9000FFF80021012001F0FBF891E0F3488442B5
:101CA00008D10121022001F0F3F80021022001F007
:101CB000EFF885E0EE48844208D10121042001F0CC
:101CC000E7F80021042001F0E3F879E0E9488442D4
:101CD00008D10121082001F0DBF80021082001F0E3
:101CE000D7F86DE0E448844208D10121102001F0CA
:101CF000CFF80021102001F0CBF861E0DF488442EA
:101D000008D10121202001F0C3F80021202001F09A
:101D1000BFF855E0DA48844208D10121022001F0E1
:101D2000C8F80021022001F0C4F849E0D5488442F7
:101D300009D10121080401F0BCF800214FF48030E2
:101D400001F0B7F83CE0D048844209D101214804B1
:101D500001F0AFF800214FF4003001F0AAF82FE0B5
:101D6000CA48844209D10121880401F0A2F8002167
:101D70004FF4802001F09DF822E0C548844208D14C
:101D80000121402001F084F80021402001F080F87A
:101D900016E0C048844208D10121802001F078F883
:101DA0000021802001F074F80AE0BB48844207D18A
:101DB0000121801501F06CF80021A01501F068F8F0
:101DC00010BD00220288A84B98420ED0AC4B98421E
:101DD0000BD0B0F1804F08D0A44B984205D0A44B53
:101DE000984202D0A34B984204D14FF68F731A4009
:101DF0004B881A43A04B984207D0A04B984204D07E
:101E00004FF6FF431A400B891A4302804B68C362A6
:101E10000B880385944B984202D0994B984201D18C
:101E20008B7A03860123838270474FF0FF31416034
:101E30000021018001814180817270470185828289
:101E400070470A46002101884FF68F7319401143ED
:101E50000180704741627047C16270470146486A1D
:101E600070470146088D704721B1028842F0020296
:101E7000028004E002884FF6FD731A40028070472A
:101E800021B1028842F00402028004E002884FF689
:101E9000FB731A400280704721B1028842F0800231
:101EA000028004E002884FF67F731A400280704778
:101EB00002884FF6F7731A40028002880A430280B4
:101EC000704702884FF6FF431A40028002880A4397
:101ED0000280704721B1028842F00102028004E0D2
:101EE00002884FF6FE731A400280704770B50024D6
:101EF00000220023058C4FF6FE7635400584028CC7
:101F00008388048B4FF68F752C40B51E2C400D88AE
:101F10002C43751E2A408D892A434D882A43524DF1
:101F2000A84202D0564DA84213D14FF6F7752A4069
:101F3000CD892A434FF6FB752A408D882A434FF6F8
:101F4000FF652B404FF6FF552B400D8A2B434D8AE2
:101F50002B43838004838D684563028470BD70B514
:101F6000002400220023058C4FF6EF7635400584CF
:101F7000028C8388048B48F6FF752C404FF6FF4592
:101F80002C400D884FF6FF7606EA05252C434FF6C8
:101F9000DF752A408D8906EA05152A434D8806EA31
:101FA00005152A43304DA84202D0354DA8421DD117
:101FB0004FF67F752A40CD894FF6FF7606EA051564
:101FC0002A434FF6BF752A408D8806EA05152A4335
:101FD0004FF6FF352B404FF2FF752B400D8A06EA76
:101FE00085052B434D8A06EA85052B4383800483B0
:101FF0008D688563028470BD70B5002400220023C3
:10200000058C4FF6FF6635400584028C8388848BEF
:102010004FF68F752C404FF6FC752C400D882C43E5
:102020004FF6FF552A408D894FF6FF7606EA0525C3
:102030002A434D8806EA05252A430B4DA84202D0C3
:102040000F4DA84238D14FF2FF752A40CD894FF687
:10205000FF7606EA05252A434FF6FF352A408D888C
:1020600006EA05252A4319E000000140000400406B
:1020700000080040000C0040001000400014004028
:10208000000401400040014000440140004801407C
:1020900000180040001C0040002000404EF6FF7574
:1020A0002B404DF6FF752B400D8A06EA05152B4394
:1020B0004D8A06EA05152B43838084838D68C563AA
:1020C000028470BD70B5002200230024058C4EF6FA
:1020D000FF7635400584038C8488828B48F6FF7533
:1020E0002A404FF6FF452A400D884FF6FF7606EA54
:1020F00005252A434DF6FF752B408D8906EA0535E7
:102100002B434D8806EA05352B43FE4DA84202D0ED
:10211000FD4DA84208D14BF6FF752C400D8A4FF6B5
:10212000FF7606EA85152C43848082838D680564DA
:10213000038470BD002101804180818081608181A4
:10214000C18101824182704770B50346002000249E
:102150001846183001258D40ACB21D8CA5431D8456
:1021600009B108290AD100EB610005684FF68F76A6
:10217000354005600568154305600FE00D1FC5F388
:102180004E052844056848F6FF7635400560056829
:102190004FF6FF7606EA02263543056070BD4163BF
:1021A000704781637047C1637047016470470A4696
:1021B0000021018B4FF68F73194011430183704743
:1021C0000A460021018B48F6FF7319404FF6FF7352
:1021D00003EA02231943018370470A460021818BD9
:1021E0004FF68F7319401143818370470A460021CF
:1021F000818B48F6FF7319404FF6FF7303EA022301
:102200001943818370470A460021018B4FF6F7730B
:1022100019401143018370470A460021018B4FF298
:10222000FF7319404FF6FF7303EA0223194301833A
:1022300070470A460021818B4FF6F773194011430E
:10224000818370470A460021818B4FF2FF7319404A
:102250004FF6FF7303EA02231943818370470A464E
:102260000021018B4FF6FB73194011430183704726
:102270000A460021018B4FF6FF3319404FF6FF73DA
:1022800003EA02231943018370470A460021818B28
:102290004FF6FB7319401143818370470A460021B2
:1022A000818B4FF6FF3319404FF6FF7303EA022389
:1022B0001943818370470A460021018B4FF67F73D3
:1022C00019401143018370470A460021018BC1F375
:1022D0000E014FF6FF7303EA02231943018370478F
:1022E0000A460021818B4FF67F7319401143818389
:1022F00070470A460021818BC1F30E014FF6FF7330
:1023000003EA02231943818370470A460021018CA6
:102310004FF6FD7319401143018470470A460021AE
:10232000018C4FF6F77319401143018470470A4638
:102330000021018C4FF6DF7319404FF6FF7303EA5B
:1023400002131943018470470A460021018C4FF69D
:102350007F7319404FF6FF7303EA02131943018498
:1023600070470A460021018C4FF6FF5319404FF683
:10237000FF7303EA02231943018470470A460021D0
:10238000018C4FF2FF7319404FF6FF7303EA0223EB
:102390001943018470470A460021018C4DF6FF73F2
:1023A00019404FF6FF7303EA023319430184704763
:1023B00030B5002301248C40A3B2048C9C430484D8
:1023C000048C02FA01F5ADB22C43048430BD30B563
:1023D000002304248C40A3B2048C9C430484048C0A
:1023E00002FA01F5ADB22C43048430BD828B4FF26A
:1023F000FF331A408283828B4FF6FF7303EA012377
:102400001A4382837047F0B50C461546002100221E
:102410000026078C4EF6FF7C07EA0C070784818BA9
:10242000028C4FF6FF7707EA043640F6FF47394043
:102430004FF6FF7707EA052739434FF6FF7707EA9C
:102440000337394345F6FF773A4046F480573A431D
:1024500081830284F0BD828B4FF6F3731A4082832E
:10246000828B0A4382837047F0B50C4615460021E3
:1024700000220026078C4FF6FF6C07EA0C07078442
:10248000818B028C4FF6FF7707EA04264FF60C7714
:1024900039404FF6FF7707EA03172F4339434FF2CE
:1024A000FF573A4046F480773A4381830284F0BD77
:1024B000028B4FF2FF331A400283028B4FF6FF73F9
:1024C00003EA01231A4302837047F0B50C46154610
:1024D000002100220026078C4FF6EF7C07EA0C074C
:1024E0000784018B028C4FF6FF7707EA041640F64B
:1024F000FF4739404FF6FF7707EA033739434FF676
:10250000FF7703E0000001400004014007EA0527CF
:1025100039434FF65F773A4046F010073A4301835C
:102520000284F0BD028B4FF6F3731A400283028BD4
:102530000A4302837047F0B50C461546002100227D
:10254000068C4FF6FE773E400684018B028C4FF6D8
:102550000C7631407E1C06EA03162E4331434FF6BB
:10256000F576324044F00106324301830284F0BD27
:1025700070B505460C46208850B92389A288618829
:102580002846FFF7D8FFE1882846FFF7CBFF25E074
:10259000208804280AD12389A28861882846FFF769
:1025A00094FFE1882846FFF783FF17E0208808287A
:1025B0000AD12389A28861882846FFF755FFE18860
:1025C0002846FFF748FF09E02389A288618828464A
:1025D000FFF719FFE1882846FFF708FF70BD0021CB
:1025E00001804180012181800021C18001817047EB
:1025F0002DE9F04105460C4600260127608808B900
:10260000022600E00026A088012801D1022700E070
:1026100001272088A0B92389A28861882846FFF76E
:102620008AFFE1882846FFF77DFF23893A46314635
:102630002846FFF74AFFE1882846FFF739FF13E0F5
:102640002389A28861882846FFF73FFFE188284652
:10265000FFF72EFF23893A4631462846FFF76BFFE6
:10266000E1882846FFF75EFFBDE8F0810146486B30
:1026700070470146886B70470146C86B704701463A
:10268000086C70470A884B881A438B881A43CB889A
:102690001A430B891A434B891A438B891A43A0F8B2
:1026A000442070470021018041808180C1800181E8
:1026B00041818181704731B1B0F8442042F4004239
:1026C000A0F8442005E0B0F84420C2F30E02A0F8C0
:1026D0004420704721B1828842F00402828004E0E5
:1026E00082884FF6FB731A408280704721B182883E
:1026F00042F00102828004E082884FF6FE731A40A5
:10270000828070471AB183890B43838102E08389F9
:102710008B43838170478182704702460020138A71
:102720000B400BB1012000E000207047CA43028239
:10273000704730B50246002000230024158A05EAC0
:102740000103958905EA010413B10CB1012000E0F1
:10275000002030BDCA430282704741EA0203A0F85C
:10276000483070471AB183890B43838102E0838923
:102770008B438381704721B1828842F008028280B6
:1027800004E082884FF6F7731A408280704701890F
:102790004FF6F8721140018170470A460021018905
:1027A0004FF68F73194011430181704730B50446CD
:1027B0000D4629462046FFF7F0FF208940F007002C
:1027C000208130BD2DE9F04104460D4616461F46D6
:1027D000602D06D13B46012231462046FFF775FEAB
:1027E00005E03B46012231462046FFF7A4FE29467C
:1027F0002046FFF7D2FF208940F007002081BDE886
:10280000F08130B50C4600210189C9B24FF6FF7541
:1028100005EA0325154325432943018130BD2DE9F0
:10282000F04105460E4617469846002443463A4670
:1028300031462846FFF7E5FF2C894FF6F870044033
:1028400044F007044FF68F70044044F070042C816C
:10285000BDE8F081F0B504460D4616461F463B46DE
:10286000324629462046FFF7CCFF208940F48040BD
:102870002081F0BD82884FF68F731A408280828853
:102880000A438280704702894FF6F8731A4002812A
:1028900002890A430281704702894FF67F731A400A
:1028A000028102890A4302817047F0B50C46154641
:1028B0001E460021002200230189028B038C4FF663
:1028C000F877394021434FF6FC473A4040F2011770
:1028D0003A434FF6DD773B404FF6FF7707EA06179E
:1028E0002F433B43018102830384F0BD21B18288E1
:1028F00042F08002828004E082884FF67F731A40A3
:1029000082807047A0F850107047000010B5012178
:10291000880300F0CEFA00214FF4804000F0C9FA9D
:1029200010BD1C49086070471B490862704730B5EC
:1029300000228B071C0F0F2303FA04F2154B0833F8
:102940008C1053F824309343124C08348D1044F803
:10295000253023468C1053F824308C07240F00FABE
:1029600004F423430B4C08348D1044F8253030BD5B
:102970000949DC3108607047084908607047002049
:1029800004492031096801F4807109B1012000E097
:102990000020704700380140000027420004274211
:1029A000F948006840F00100F74908600020F64946
:1029B00008310860F4480068F4490840F2490860AA
:1029C000F348091D0860F348EF4984310860F04876
:1029D0001038091D0860EC48006820F48020EA499E
:1029E00008600020E8490C310860E7498C31086034
:1029F00070470021E44A921C11701146087070471C
:102A000010B501460022002300204A11012A02D1FC
:102A1000DD4C236808E0022A03D1DB4C70342368C4
:102A200002E0D94C7434236801F01F020124944061
:102A30001C400CB1012000E0002010BD38B5002082
:102A400000900024002500BF3120FFF7D9FF054684
:102A50000098401C00900098B0F5A04F01D0002DC8
:102A6000F2D03120FFF7CCFF08B1012400E00024B0
:102A7000204638BD01460020C34A106820F0F80007
:102A800040EAC10010607047C349086070470021E8
:102A9000BD4A703211701170012802D004280AD189
:102AA00004E00121B84A7032117005E00521B64AF0
:102AB0007032117000E000BF00BF7047B749086076
:102AC000704770B5049C41EA82150126C6EB530697
:102AD00045EA0645054345EA0465AB4E361D3560BB
:102AE00070BDAD4908667047820142EA0172A64B8B
:102AF00084331A607047A8498866704710B583010F
:102B000043EA016343EA02739F4C8834236010BD9B
:102B1000A14908677047A049C86470470246002071
:102B2000994B0833186820F0EC6042EA010318431F
:102B3000954B08331860704702460020924B0833CB
:102B4000186820F0784042EA010318438E4B08339E
:102B500018607047014600208B4A0832106820F048
:102B6000030008431060704787480830006800F091
:102B70000C00704701460020834A0832106820F09C
:102B8000F000084310607047014600207E4A08327A
:102B9000106820F4E05008431060704701460020A0
:102BA000794A0832106820F4604040EAC1001060A1
:102BB0007047F0B5002100220024022500260223E0
:102BC000714F08373F6807F00C0121B1042905D087
:102BD000082937D105E0724F076036E0714F076072
:102BE00033E0694F3F1D3F68C7F38056664F3F1D76
:102BF0003F6807F03F036EB16A4FB7FBF3F7DFF8AA
:102C000088C10CF1040CDCF800C0CCF3881C07FB75
:102C10000CF40CE0624FB7FBF3F7DFF86CC10CF17A
:102C2000040CDCF800C0CCF3881C07FB0CF4564FF6
:102C30003F1D3F68C7F301477F1C7D00B4FBF5F7DC
:102C4000076002E0564F076000BF00BF4E4F0837D5
:102C50003F6807F0F0010909534F7A5C0768D740D5
:102C60004760494F08373F6807F4E051890A4E4FE3
:102C70007A5C4768D7408760434F08373F6807F45E
:102C80006041490B484F7A5C4768D740C760F0BD48
:102C9000002100F44072B2F5407F0AD13A4A08326E
:102CA000116821F4F811414A02401143364A0832B2
:102CB0001160354A70321268C0F30B031A43324B6D
:102CC00070331A607047354944390860704733499A
:102CD0004039086070473649086070470146002057
:102CE000294A8C32106820F01F004A1E1043264AE1
:102CF0008C321060704701460020234A8C321068E5
:102D000020F4F8504A1E40EA02201F4A8C3210601C
:102D10007047014600201C4A8C32106820F4401095
:102D200008431060704701460020174A8C32106833
:102D300020F4400008431060704701460020124A0A
:102D40008C32106820F440300843106070471949F5
:102D50000860704739B10C4A3032126802430A4B9E
:102D600030331A6006E0084A303212688243064B5C
:102D700030331A607047F9B1034A343212680243A3
:102D8000014B34331A601CE000380240FFFFF6EAC2
:102D9000103000240030002000004742800E4742DF
:102DA0000024F40000127A00CE000020FFFCFF0F88
:102DB0005C014742E01147428F4A126882438E4BC2
:102DC0001A60704739B18C4A121D126802438A4B4F
:102DD0001B1D1A6006E0884A121D12688243864B4A
:102DE0001B1D1A60704739B1834A0C3212680243C6
:102DF000814B0C331A6006E07F4A0C321268824322
:102E00007D4B0C331A60704739B17B4A103212681F
:102E10000243794B10331A6006E0774A1032126889
:102E20008243754B10331A60704739B1724A243AA5
:102E300012680243704B243B1A6006E06E4A243A43
:102E4000126882436C4B243B1A60704739B16A4A5E
:102E5000203A12680243684B203B1A6006E0664A3B
:102E6000203A12688243644B203B1A60704739B1A4
:102E7000614A1C3A126802435F4B1C3B1A6006E031
:102E80005D4A1C3A126882435B4B1C3B1A607047D8
:102E900039B1594A143A12680243574B143B1A602D
:102EA00006E0554A143A12688243534B143B1A60A9
:102EB000704739B1504A103A126802434E4B103BEA
:102EC0001A6006E04C4A103A126882434A4B103BA3
:102ED0001A60704739B1484A1C3212680243464BA7
:102EE0001C331A6006E0444A1C3212688243424B8B
:102EF0001C331A60704739B13F4A203212680243CE
:102F00003D4B20331A6006E03B4A20321268824370
:102F1000394B20331A60704739B1374A243212686E
:102F20000243354B24331A6006E0334A24321268D8
:102F30008243314B24331A60704739B12E4A2C3208
:102F4000126802432C4B2C331A6006E02A4A2C32BA
:102F500012688243284B2C331A60704739B1264AD5
:102F6000303212680243244B30331A6006E0224AA2
:102F7000303212688243204B30331A607047012888
:102F800008D11D493C31096841F008011A4A3C3218
:102F9000116007E018493C31096821F00801164A20
:102FA0003C321160704739B1134A273A1278024314
:102FB000114B273B1A7006E00F4A273A12788243DA
:102FC0000D4B273B1A7070470B484030006840F0AB
:102FD0008070094940310860704701460020064A68
:102FE000283A12680A400AB1012000E00020704728
:102FF00001492639087070473438024000204149A1
:103000000860091D0860091D0860091D08603E4828
:103010003C4914310860704700213A498279002AFE
:103020003AD00A46126803689A430B461A600A1D92
:10303000126803689A430B1D1A60027911440A68EA
:1030400003681A430A602F4A0832126803689A43D9
:103050002C4B08331A601A1D126803689A43294BD7
:103060000C331A604279102A0ED11A1F12680368B5
:103070001A43244B08331A601A1D126803681A4356
:10308000204B0C331A600DE01E49427911440A6846
:1030900003681A430A6005E0027911440A6803686C
:1030A0009A430A6070470021016001710C2141714F
:1030B0000021817170471349103109680143114A99
:1030C000103211607047014600200E4A1432126817
:1030D0000A400AB1012000E000207047094914317C
:1030E0000860704701460020064A143212680A4000
:1030F0000AB1012000E00020704702491431086045
:1031000070470000003C0140FFFF7F0070477047A0
:10311000704770477047754600F02CF8AE460500C2
:103120006946534620F00700854618B020B5FEF7E3
:10313000A5F9BDE820404FF000064FF000074FF022
:1031400000084FF0000B21F00701AC46ACE8C009C5
:10315000ACE8C009ACE8C009ACE8C0098D467047CE
:1031600010B50446AFF300802046BDE81040FDF7DF
:1031700052B8000000487047204D002021F0004266
:10318000A2F16052B2F5801F01F0004328BFD2F1D6
:103190007F6C0BD95FEA001C43EAC20242EB50701D
:1031A00018BF704728BF20F001007047B2F5801F9C
:1031B000BCBF184670474FEA410C1CF5001F02D2F5
:1031C000084600F0AABD70B500F0A4F9000000891F
:1031D000FFF7F6BF4FF00040A0F5800070470000F9
:1031E00010B591EA030F48BF83F0004300F1248239
:1031F000841A71EB030C05D2121943EB0C03001B6C
:1032000061EB0C01DFF824E14FEA1154A4EB135CED
:103210001EEA430F18BF9EEA445F73D023EA0E03F1
:10322000DCF1200E21EA045143F4801332D322FA58
:103230000CFE10EB0E0023FA0CFE41EB0E01CCF15C
:10324000200E03FA0EFE10EB0E0051F10001B1F555
:10325000801FCCF1200E32D201EB045112FA0EF293
:10326000BDE8104058BF7047401C38BF5FEA4202BB
:1032700018BF7047002814BF20F0010041F1000181
:103280004FEA410313F5001F38BF7047A1F1C04159
:1032900000F08EB9012A43EB0302ACF1200CDCF103
:1032A0001F0E32BF4FF0000E23FA0CF310EB030099
:1032B00041EB0451B4EB115FD0D0A1EB045101F507
:1032C000801149085FEA300001EB04510ED350F140
:1032D000000038BF12FA0EFE08D1BDE81040C9E761
:1032E000401C38BF5FEA4202CAD1C3E7BDE81040C4
:1032F0004FEA410313F5001F38BF7047A1F1C041E9
:1033000000F056B99EEA445F08D011EA5E0FBDE8AE
:10331000104004BF01F0004100207047BDE810409C
:1033200070B500F0F7F800BF64FBBE3E0000E0FFA0
:10333000491058BFC1F140415B1058BFC3F1404331
:103340008B42EFF30080704751EA030C17D41CF551
:10335000801F58BFBCF5801F00F10680994218BF3E
:10336000704708BF9042704707D711F5801F58BFBC
:1033700013F5801F19D499427047894270471CF594
:10338000801F08D5BCF5801FF7D58B4218BF70474A
:1033900008BF824270474FF4001C1CEB410F38BF3E
:1033A0001CEB430F01D28B42704770B500F0B2F8AE
:1033B000922449004FF000514FF08053FFF7B8BFFF
:1033C000DFF848C170B51CEA111E1EBF1CEA1315B8
:1033D0009EEA0C0F95EA0C0F00F06F8081EA03045F
:1033E00023EA4C134EEAD47E21EA4C1141F48011B9
:1033F00043F48013AE44A1FB024CA0FB0365AEF185
:103400007F7E361955EB0C05A1FB034C4CF10003F4
:10341000A0FB021C16EB0C06654153F100030942A8
:1034200018BF46F0010613F4007F0BD14FEA0331B9
:103430004FEA0530340341EA155140EA16506FF067
:1034400003020AE04FEAC3214FEAC520F40241EA31
:10345000555140EA56506FF0020202EB2E4201EB4A
:10346000025585EACE710AD05FEA440C18BF24F0F9
:10347000004450F1000041F1000120EAD47040F214
:10348000FE7C624500D270BDA84214BF4FF080445C
:103490004FF04044002E08BF0024BEF1806FA8BF4B
:1034A000A1F1C041BDE8704080F282804FF0000081
:1034B00001F1C04101F0004170479EEA0C0F0CEA97
:1034C000131518BF95EA0C0F06D04FF0000081EAE3
:1034D000030E0EF0004170BD00F01CF88900013EA3
:1034E00000F007B800F009B84FEA430C5FEA5C5CF3
:1034F00008D081EA030100F05BB84FEA410C5FEAB3
:103500005C5CF6D14FF00000014970470000FF07F6
:103510000000F87F0EF1020E2EF0030E5EF8046B31
:10352000364205D4012A43EB030515F5001F12D8D6
:10353000012841EB010C1CF5001F0CD80ED14FEAFD
:10354000D17C15F5001F0CEB4C0C0CF1020C08BFE4
:103550004CEBD37C04E04FF0080C01E04FEAD37C45
:103560000CEB4C0526FA05F606F00706B6F1040C3E
:1035700006D20EEB860CBDE870404CF0010C6047A3
:10358000DFE80CF0090B02024FF000414FF00000A1
:10359000A1F5002170BD19461046012851EB010428
:1035A00018BFD4F5001484BF002001F0004170BDA5
:1035B0000808A0F500114FEA3101704753EA010CE9
:1035C00017D41CF5801F58BFBCF5801F00F1068082
:1035D0008B4218BF704708BF8242704707D713F568
:1035E000801F58BF11F5801F19D48B4270479B4232
:1035F00070471CF5801F08D5BCF5801FF7D5994290
:1036000018BF704708BF904270474FF4001C1CEB76
:10361000430F38BF1CEB410F01D2994270470FB4E2
:103620000CBC03BCFFF7C1BE10B591EA030F48BF45
:1036300083F000433FF5DCAD841A71EB030C07D235
:1036400012198CF0004C43EB0C03001B61EB0C01D6
:10365000DFF8A4E14FEA1154A4EB135C1EEA430F18
:1036600018BF9EEA445F00F0B08023EA6E03524226
:1036700021EA0451C3EB6E0338BF5B1EDCF1200E60
:1036800025D322FA0CFE10EB0E0043FA0CFE41EBA0
:103690000E01CCF1200E03FA0EFE10EB0E0051F1DC
:1036A0000001CCF1200E29D412FA0EF201EB0451E4
:1036B000BDE8104058BF7047401C1CBFB2F1004F1E
:1036C000704700280CBF491C20F00100704712EB26
:1036D000020E43EB030218BF4FF0010E4EEA420206
:1036E000ACF1200CDCF11E0E54D943FA0CFE10EBA9
:1036F0000E0051F1FF31CCF11E0ED5D50EF1010EA9
:1037000012FA0EFE404141EB010101EB445C5FEA1D
:103710005C5C10D910EBDE7001EB045138BFBEF1D8
:10372000004FBDE8104018BF704700280CBF491C6F
:1037300020F00100704730D24FEAD42C11F500116F
:1037400024F400641BD0B1FA81F20B3AA41AA41E2F
:10375000D2F12003914030FA03F31943904001EB7A
:10376000CC71002C01EB0451BDE81040A8BF70479C
:1037700001F1C0414FF0000001F000417047B0FA84
:1037800080F310FA03F100D110BDE41A173C48058C
:10379000C90AE4E701EB045110BD491001EB0451E3
:1037A000BDE810404FEA300002E04FF000017047E2
:1037B0004A0008BF0042F8D0B2F5001F28BF70478A
:1037C00001F000414FF0000070479EEA445F07D0CF
:1037D00011EA5E0FBDE8104004BF002100207047D1
:1037E000BDE8104070B5FFF795FE00BF40DFF63E24
:1037F00083F00041104670470000E0FF43004FEAAD
:10380000D30C4FEA3C0C43401FBF40070CF1605102
:1038100013F0FE4F70471CF0006F03D100200CF036
:10382000004170470CF0004343EA507010B540EA85
:10383000CC0000F02CFA00BF000000924FEA00011B
:10384000FFF7B6BE4FF000414FF00000A1F5002198
:103850007047000090EA010F48BF81F0004100F17D
:103860009A82421A3CBF801A89184FEAD0524FF010
:103870007F4C1CEA410FA2EBD15318BF9CEA026FA8
:1038800000F03B804FF0004C4CEA00204CEA012154
:1038900021FA03FC10EB0C0C1ED202F1FF325FEA9E
:1038A0001C2040EBC25038BF70471CF07F0F4FEA1E
:1038B000400C18BFBCF17F4F38BF7047C3F12003E5
:1038C000994008BF20F00100BCF17F4F38BF70471E
:1038D000A0F1C04000F021BA4FEA3C00000A40EBE2
:1038E000C25028BF1CF0FF0F4FEA400CE6D018BFB3
:1038F000BCF17F4F38BF7047EAE79CEA026F05D002
:1039000010EA5C0F08BF00F00040704710B500F0EF
:10391000BEF900BF64FBBE3E401058BFC0F140403E
:10392000491058BFC1F140418142EFF30080704718
:103930004FF47F0C1CEAD0121EBF1CEAD11392EA8E
:103940000C0F93EA0C0F00F0858090EA010F48BF3E
:1039500042F4807240F4000C41F400002CF07F41EE
:1039600020F07F4000B58142A2EB03020FF2081C59
:10397000ACEB504EC0F100009EF800E04FEA4E0E56
:1039800000FB0EFC38BF49004FEA2C1C02F5FA027E
:103990000CFB0EF34FEACE1E4FEA112C4FEAC12169
:1039A0000EEB635E42EB22420EFB0CFC4FEA1C5313
:1039B00000FB03114FEA112C4FEA01310EFB0CFC06
:1039C0004FEADC4C00FB0C11C14228BF09184CEB3C
:1039D00003335DF804EB10EB410143EBC250B2F549
:1039E0007C0F38BF704729D512F0F00F1CBF00F1D3
:1039F000C04000F000407047008182838485868744
:103A000088898B8C8D8E8F919293959697999A9C9D
:103A10009D9FA0A2A3A5A7A8AAACAEB0B2B3B5B70C
:103A2000B9BCBEC0C2C5C7C9CCCED1D4D7D9DCDFE2
:103A3000E2E6E9ECF0F3F7FAFE0000004FEA400C92
:103A40000CF1807CBCF17E4F28BF7047B0F1C040C4
:103A500000F063B990EA010F0CEAD11348BF42F4B9
:103A60008072624538BF634507D213F47F0F16D0CA
:103A700080EA010000F00040704710B500F007F93F
:103A8000097EFC3E00F005B880EA010000F000402D
:103A9000704780EA010000F0004000F03EB912F4E7
:103AA0007F0F04BF0248704780EA010000F035B97B
:103AB0000000C07FC10DD1F19E0206DB4FEA00235A
:103AC00043F0004323FA02F07047004207D54FEA63
:103AD0004001B1F1FE4F02D24FF00000704710B527
:103AE00000F0D5F849922480002070476FEA20004A
:103AF0007047000010F0004148BF4042B0FA80F328
:103B000010FA03F2C3F19D030BD051EAC35101EB4C
:103B10001220530638BF704700F1010008BF20F0A3
:103B20000100704750EA010C00F113801CF5000FF2
:103B300058BFBCF5000F01D48842704707D710F575
:103B4000000F58BF11F5000F15D488427047894205
:103B500070471CF5000F04D5BCF5000FF7D5814266
:103B600070474FF0807C1CEB400F38BF1CEB410FBF
:103B700001D28142704710B500F089F892244900C3
:103B80004FF000504FF08051FFF7C6BE4FF47F0C4E
:103B90001CEAD0121EBF1CEAD11392EA0C0F93EA62
:103BA0000C0F00F0478090EA010F48BF42F480728A
:103BB0004FF0004C4CEA00204CEA012102EB0302DA
:103BC000A0FB0113A2F50002002918BF43F0010376
:103BD0005B0028BF4FEA330342EB22425FEA132C1B
:103BE0004CEBC2502EBFBCEB436FB2F57C0F70475D
:103BF0004FEA036CBCF1004F08BF20F00100B2F5A2
:103C00007C0F38BF70470BD582F0FF0212F5803F62
:103C1000C8BF704700F1C040D8BF00F000407047F7
:103C200000F5000C5FEA4C0C48BF7047B0F1C04093
:103C300000F073B890EA010F0CEAD11348BF42F4C8
:103C40008072624538BF634504D280EA010000F00B
:103C50000040704710B500F01AF800BF8900013E1F
:103C600000F007B800F009B85FEA410C5FEA1C6C8D
:103C700008D080EA010000F050B85FEA400C5FEA2B
:103C80001C6CF6D14FF00040A0F5800070470EF19B
:103C9000020E2EF0030E5EF8044B244204D44FEAC9
:103CA0004102B2F17F4F11D84FEA4003B3F17F4F89
:103CB0000CD80ED14FEAD07CB2F17F4F0CEB4C0CFC
:103CC0000CF1020C08BF4CEBD17C04E04FF0080C67
:103CD00001E04FEAD17C0CEB4C0324FA03F404F02E
:103CE0000704B4F1040C06D20EEB840CBDE81040BE
:103CF0004CF0010C6047DFE80CF0070802024FF0BF
:103D00000040A0F5800010BD0846420018BFD2F167
:103D1000807288BF00F0004010BDFF2141EAD05002
:103D2000C005704751EA000C00F113801CF5000F2C
:103D300058BFBCF5000F01D48142704707D711F579
:103D4000000F58BF10F5000F15D48142704789420B
:103D500070471CF5000F04D5BCF5000FF7D588425D
:103D600070474FF0807C1CEB410F38BF1CEB400FBD
:103D700001D28842704780EA010081EA000180EAAE
:103D80000100FFF7F8BE000090EA010F48BF81F084
:103D900000413FF566AD421A04D882F00042A0EB24
:103DA000020011444FEAD0524FF07F4C1CEA410F01
:103DB000A2EBD15318BF9CEA026F4AD04FF0004CDF
:103DC0004CEA00204CEA012121FA03FCB0EB0C0C78
:103DD0000FD412F0FE0F36D05FEA4C001DD5001252
:103DE00040EBC25038BF70471CF03F0F18BF704700
:103DF0000BE0A2F101025FEA1C2040EBC25038BF89
:103E000070471CF07F0F18BF7047C3F12003994023
:103E100014BF401E20F00100704780084FEA1223B3
:103E200008BF7047B0FA80FCA2EB0C02CCF1280C62
:103E300060FA0CF093EA122F04BF00EBC2507047F7
:103E40004FEAC3707047130A5FEADC1008BF70477F
:103E5000F6E79CEA026F04D010EA5C0F08BF00206E
:103E6000704710B5FFF713FF40DFF63E81F00040CA
:103E700070470000943E000800000020E0000000B1
:103E8000C4010008743F0008E0000020A0520000B8
:103E9000E001000800000000007A030A00000000B2
:103EA0000000000001020304060708091100124087
:103EB000173F185019031A78320029502C782A001D
:103EC000427F4D0963E064FF65206600670013F0E0
:103ED0000DC10FC5142122FF23012434253C26A146
:103EE0002B006BAA13FF695D900A91019201930167
:103EF000945F95539611971A983D995A9A1E9B0074
:103F00009C25A765A8659E81A6067E0C7F16802A43
:103F1000814E8261836F847B8586868E879788A495
:103F200089AF8AC58BD78CE88D20A980AA80ACFF89
:103F30003300229923034A00491347084B144C17B6
:103F400046050CD00EF54D000000000000000000FA
:103F50000000000000000000000000000000000061
:103F60000000000000000102030401020304060730
:043F7000080900003C
:040000050800018965
:00000001FF
